S019000052544F535F46696E616C5F50726F6A6563742E73333714
S113000000100020411100003D1100003D110000CE
S11300103D1100003D1100003D1100003D110000A4
S11300203D1100003D1100003D1100003D11000094
S11300303D1100003D110000D75E0000D97800009A
S11300403D1100003D1100003D1100003D11000074
S11300503D1100003D1100003D1100003D11000064
S11300603D1100003D110000417800003D110000E9
S11300703D1100003D1100003D1100003D11000044
S11300803D1100003D1100008D7800003D1100007D
S11300903D1100003D1100003D1100003D11000024
S11300A03D1100003D1100003D1100003D11000014
S11300B03D1100003D110000896D00003D1100005C
S11300C03D1100003D1100003D1100003D110000F4
S11300D03D1100003D1100003D1100003D110000E4
S11300E03D1100003D1100003D1100003D110000D4
S11300F03D1100003D1100003D1100003D110000C4
S11301003D1100003D1100003D11000010B5054CEB
S1130110237833B9044B13B10448AFF300800123AF
S1130120237010BD6C110020000000009C9F000093
S113013008B5034B1BB103490348AFF3008008BD66
S113014000000000701100209C9F0000A3F5803A7D
S1130150704700BF174B002B08BF134B9D46FFF79A
S1130160F5FF00218B460F461348144A121A08F073
S113017055FC0E4B002B00D098470D4B002B00D0A4
S113018098470020002104000D000D48002802D0EB
S11301900C48AFF3008008F0FFFB2000290007F0B3
S11301A08DFD08F0E5FB00BF000008000000000022
S11301B000000000001000206C1100203CB0002062
S11301C0000000000000000010B5114C114AA261AB
S11301D00323C4E90433104BE36122664FF48063C4
S11301E00E4A0F492362626600231022E01DA362B7
S11301F06362E3622367E3666367A26608F0CCFC8C
S11302000849204608F0C8FC2023A37110BD00BF94
S113021088110020E08B00004012002030120020E2
S1130220E98B0000ED8B00002DE9F84FDFF87C80AE
S113023098F800308246894616460BB9FFF7C4FF8A
S1130240182707FB0A873D6FD7F86CB05D452BD99B
S1130250BC6E796E641BB44228BF344629444846B8
S1130260224608F0CDFBBB6E2544A144361BAB42AD
S113027008BF0025ABEB0502964228BF164656B1CF
S1130280182303FB0A833246596E4846294408F072
S1130290B7FB3444354424B1182000FB0A88C8F85D
S11302A070502046BDE8F88F0024E3E78811002051
S11302B02DE9F041164C1E4623780546884617461C
S11302C00BB9FFF781FF2369AB421DD9EFF3118C02
S11302D04FF0200181F3118865B1182005FB00035C
S11302E0E21844F80380576000FB054200231662BD
S11302F093625362182000FB0544069BE3628CF36F
S113030011880020BDE8F0814FF0FF30FAE700BF0C
S1130310881100202DE9F843144D1F462B7806461A
S1130320894690460BB9FFF74FFF6B69B34219D961
S1130330EFF311824FF0200181F3118846B11824A4
S113034004FB0654C4E918980023A7662367E366F0
S1130350182000FB0655089B6B6782F31188002068
S1130360BDE8F8834FF0FF30FAE700BF88110020A2
S1130370F0B400EB4003DFF8800000EBC30000F1B1
S113038018063069F768756887422ED3B368DC1B9A
S1130390631E934212D37D19D01900BF11F8013B9B
S11303A005F8013B013A05D011F8013B05F8013B82
S11303B0013AF3D1F0600120F0BC7047C0189042BC
S11303C017D37819121B11F8013B00F8013B013CCB
S11303D0F9D1141C05D011F8013B05F8013B013A91
S11303E0F9D1F4600120F0BC7047C01B0138904281
S11303F0D1D20020F0BC70478811002030B5002312
S1130400CC5C74B99A4228BF1A46FE2AD4B20AD8E0
S1130410034603F8014B581E8C18A1420AD19818C0
S113042030BD0133ECE7FF234470140A0370847079
S1130430C31CF0E711F8015B00F8015FEDE7000071
S11304402DE9F743002580460F4691461E460F4985
S11304500F4A00954FF480630120FFF729FF0D4CEC
S11304600D4A0A49009508230120FFF753FF4FF076
S113047080532361094B5B68E360C4E90187C4F8D6
S113048020906662257003B0BDE8F083F48B000011
S1130490741600204C16002040160020001000E0C6
S11304A0014B1861704700BF4C160020034B1B6AB8
S11304B013B15B6803B11847704700BF4C160020A6
S11304C0024B1B69C01A8008704700BF4C160020FD
S11304D0044B10B51C6824B1E36803B19847246940
S11304E0F9E710BD581B002010B5EFF311844FF04D
S11304F0200181F31188094B09481B787F2B89BFA0
S1130500084907490B71053188BF012301F8013BF4
S11305101B2200F0ABF884F3118810BD48160020AC
S1130520781A0020741A002038B52A4C0120207053
S1130530EFF311854FF0200181F3118826490A2237
S1130540FFF716FF85F311880A2000F035F9EFF361
S113055011854FF0200181F31188204861687F29BB
S1130560CAB200F1010320D80270A0687F28C2B289
S113057003F1010120D81A7022697F2AD3B222D84C
S11305800B7002234B7015481822194400F06EF8C2
S113059085F31188636A03B1984700F06BF9FFF79C
S11305A085FFBDE83840FFF79FBF62F07F0203F884
S11305B0012CC9091846D2E762F07F0201F8012C28
S11305C0C0090B46D2E763F07F0301F8013BD2096F
S11305D0D3E700BF4C160020FC8B0000781A0020E3
S11305E007B501220DF107011046FFF71DFE002893
S11305F019DD9DF80730072B08D84BB1023B052BBA
S11306000FD8DFE803F01316191C1F22802B1FD00C
S11306101B0608D501220DF107011046FFF704FE61
S113062001E0FFF781FF03B05DF804FB00F03CF943
S1130630F9E700F01FF9F6E7FFF738FFF3E700F0FA
S11306404BF9F0E7FFF750FFEDE7FFF741FFEAE76B
S113065001220DF107011046FFF7E6FD0028E2DD57
S11306609DF8070000F0DAFADDE700002DE9FF410C
S11306704E4C2378012B06460F46154623D11F2DD9
S11306806DD9BB1B7F2BDAB281BF62F07F02DB091D
S113069006F8013C06F8022C8EBFB31E06F1FF33A8
S11306A006F8012C7F2DEAB281BF62F07F02ED09CA
S11306B003F8015C991E8EBF03F8022C03F1FF318D
S11306C003F8012C55E03BB3022BD8D10123626916
S11306D08DF804300DF105007F2AD3B200F1010139
S11306E02BD80370324BD3F80480E368A8EB0303E0
S11306F07F2BD8B201F1010226D8087001A9521A41
S11307000120FFF735FE30B32378C4F80C80013B99
S113071023702378012BB2D0264BD3F88420D3F84E
S113072088309A4206D0A57825B90123A370FFF733
S113073057FFA57004B0BDE8F08163F07F0301F8B2
S1130740013CD2090846C7E760F07F0002F8010CBB
S1130750DB091146CCE7636901336361D9E7E369D7
S1130760EB40DB07D8D4172DEBB28AD8711E06F8FC
S1130770013C0F4B5D68E368EB1A7F2BD8B207F19D
S1130780010207D83870521A0120FFF7F1FD40B179
S1130790E560C1E760F07F0002F8010CDB09174651
S11307A0EBE7237801332370B6E700BF4C16002033
S11307B0001000E08811002010B50246EFF3118408
S11307C04FF0200181F3118803490846FFF74EFFDB
S11307D084F3118810BD00BF781A002038B5024692
S11307E00B46EFF311854FF0200181F311880A487D
S11307F07F2BDCB200F1010106D804700648FFF734
S113080035FF85F3118838BD64F07F0401F8014C8D
S1130810DB090846ECE700BF781A002070B50B46E8
S1130820EFF311854FF0200181F31188104E7F2BD7
S1130830D9B206F101040DD831707F2AD3B204F184
S113084001010ED8024623700948FFF70FFF85F314
S1130850118870BD61F07F0104F8011CDB09264694
S1130860E5E763F07F0301F8013CD2090C46E4E7B5
S1130870781A002008B50A4B1B6A4BB11B683BB1C0
S11308809847BDE808400A4601460D20FFF7C6BF59
S1130890044B0C205968BDE80840FFF79FBF00BF18
S11308A04C160020001000E038B5EFF311854FF02E
S11308B0200181F31188064C237833B105490B22BA
S11308C00846FFF7D3FE0023237085F3118838BD53
S11308D04C160020781A002070B5EFF311854FF004
S11308E0200181F311881C4C1C4861687F29CAB21D
S11308F000F101031AD80270A0687F28C2B203F184
S113090001011AD81A7022697F2AD3B21CD80B703D
S113091002234B70114818221944FFF7A7FE85F3F0
S11309201188636AB3B1BDE87040184762F07F0272
S113093003F8012CC9091846D8E762F07F0201F8D0
S1130940012CC0090B46D8E763F07F0301F8013B93
S1130950D209D9E770BD00BF4C160020781A0020D8
S113096070B50446EFF311854FF0200181F311882F
S11309702F4E036832692F489B1A9B087F2BD9B2EC
S113098000F1010231D80170A1687F29CBB202F1D4
S1130990010031D8137061682022FFF72FFD09226E
S11309A001462448FFF762FE2368326921489B1AF6
S11309B09B087F2BD9B200F1010224D80170E068B2
S11309C07F28C3B202F1010124D8137022697F2A5F
S11309D0D3B226D80B7000234B701648152202316F
S11309E0FFF744FE85F3118870BD61F07F0102F8C2
S11309F0011CDB091046C1E763F07F0300F8013CEA
S1130A00C9090246C1E761F07F0102F8011CDB0954
S1130A101046CEE763F07F0301F8013CC0090A46A3
S1130A20CEE763F07F0301F8013BD209CFE700BFB3
S1130A304C160020781A002038B5EFF311854FF0DA
S1130A40200181F31188074C014680222046FFF7DC
S1130A50D5FC0E2201462046FFF708FE85F31188D7
S1130A6038BD00BF781A002010B5EFF311844FF0A1
S1130A70200181F31188044911220846FFF7F6FD8D
S1130A8084F3118810BD00BF781A002010B5EFF36D
S1130A9011844FF0200181F311880C4B0C4A1B691F
S1130AA0C01A80087F28C3B202F1010107D813706D
S1130AB007480822FFF7DAFD84F3118810BD63F0BC
S1130AC07F0301F8013CC0090A46EBE74C160020FD
S1130AD0781A002010B5EFF311844FF0200181F350
S1130AE011880C4B0C4A1B69C01A80087F28C3B2BA
S1130AF002F1010107D8137007480422FFF7B6FD7D
S1130B0084F3118810BD63F07F0301F8013CC00930
S1130B100A46EBE74C160020781A002010B5EFF3D4
S1130B2011844FF0200181F311880C4B0C4A1B698E
S1130B30C01A80087F28C3B202F1010107D81370DC
S1130B4007480622FFF792FD84F3118810BD63F075
S1130B507F0301F8013CC0090A46EBE74C1600206C
S1130B60781A002038B50B46EFF311844FF02001BA
S1130B7081F31188124A134D1269801A80087F2864
S1130B80C1B205F101020DD829707F2BD8B202F150
S1130B9001010ED810700B480722FFF767FD84F39C
S1130BA0118838BD61F07F0102F8011CC0091546A7
S1130BB0E5E760F07F0001F8010CDB090A46E4E791
S1130BC04C160020781A002038B50C46EFF3118536
S1130BD04FF0200181F311880E4B0F491B69C01A95
S1130BE083087F2BDAB201F101000CD80A70214688
S1130BF08022FFF703FC192201460748FFF736FD60
S1130C0085F3118838BD62F07F0200F8012CDB09FE
S1130C100146E6E74C160020781A002038B51B4B35
S1130C201C6884B938BD2469002CFBD00133984278
S1130C30F9D8EFF311854FF0200181F311887F2853
S1130C4004D8134B06E000230246F0E7114B0122BF
S1130C501871053303F8012BA1687F29CAB203F187
S1130C6001000CD81A7021688022FFF7C7FB1622F6
S1130C7001460748FFF7FAFC85F31188D2E762F0D2
S1130C807F0200F8012CC9090346E6E7581B00203F
S1130C90781A0020741A002038B5EFF311854FF04C
S1130CA0200181F31188094C014680222046FFF778
S1130CB0A5FB0123037000234370811C1A222046E4
S1130CC0FFF7D4FC85F3118838BD00BF781A0020E3
S1130CD008B50548FFF7B0FE0448FFF7ADFEBDE8D0
S1130CE0084000F0D1B800BF068C00003A8C000028
S1130CF010B500F069FA044600F066FA054B064A9E
S1130D0001462046FFF79CFBBDE810404FF0005021
S1130D10FFF7C6BBD10C0000F08C000008B502F050
S1130D207CF8BDE8084005F06DB810B5044602F043
S1130D3029F920B92046BDE81040FFF7EFBE10BDE9
S1130D4010B5044602F01EF920B92046BDE8104053
S1130D50FFF7C0BE10BD10B5044602F013F928B960
S1130D6020460421BDE81040FFF7FCBE10BDF0B5DD
S1130D7087B007460E4615460021142201A81C46DA
S1130D8007F04CFE0C9B059301A8CDE90176CDE953
S1130D900354FFF7E5FD07B0F0BD00002DE9F0476F
S1130DA0DDF8209005460E461746984602F0EAF80C
S1130DB0E8B910490C683F2C04D9BDE8F0470E4847
S1130DC0FFF76ABF0D48142262438318013485502B
S1130DD0C3E90167C3E903890C604346CDF8209059
S1130DE03A4631462846BDE8F047FFF7C0BFBDE8A4
S1130DF0F08700BF601B00204B8C0000642700209C
S1130E0073B50A4C0A4E00253368AB4204F114044E
S1130E1001D802B070BD54F8043C009354E90501B4
S1130E2054E90323FFF7A3FF0135EDE7642700200E
S1130E30601B002070B50C46064611462046154638
S1130E40FFF7C2FE2046FFF73BFB01463046FFF7A3
S1130E50C5FC0A490B68FF2B04D9BDE8704008485B
S1130E60FFF71ABF074E0C225A43B018B45001338F
S1130E700022456082600B6070BD00BF5C1B0020D7
S1130E809B8C0000641B0020F8B5094C094E00251A
S1130E9001273368AB4200D8F8BDA36823B9D4E96D
S1130EA00001FFF791FEA76001350C34F1E700BFA4
S1130EB0641B00205C1B002008B5042201230F21C1
S1130EC0032001F06DFD002008BD00002DE9F04174
S1130ED01A4E0446884617460FCE86B06D460FC597
S1130EE096E8030085E8030015482568012100F011
S1130EF0EDFA6068012100F0E9FA617B207B0023B0
S1130F00042201F04DFD617A207A0023042201F0CD
S1130F1047FD28466946CDF80880ADF8107001F009
S1130F2081FE237CA27B1B0643EA0223AB670020DD
S1130F300A236B6706B0BDE8F08100BFF88C00009F
S1130F4000350A0070B506680C468D18AC4201D114
S1130F50002070BD14F8011B304601F0BDFEF5E71A
S1130F60026813699B06FCD57047000013B504465C
S1130F7005F0CEFD247B00230122CDE9003264007C
S1130F80034AB0FBF4F1034805F024FD02B010BDA0
S1130F90990F0000642C0020024B4FF40052C3F858
S1130FA0A820704700A0004073B50F4B0F4E4FF4BC
S1130FB08045C3F89C500446407B05F009FF042398
S1130FC002220DF106013046ADF80630FFF7BAFFF4
S1130FD03046FFF7C5FFA07B05F0FAFE044B002066
S1130FE0C3F89C5002B070BD00A000460010002061
S1130FF000A0004438B5044601211248124D00F007
S113100065FAA16811480022FFF760FF002304225B
S11310100E21032001F0C4FC002304220D2103202F
S113102001F0BEFC94E80F0085E80F00084B012294
S113103020461A70FFF79AFF2046FFF7B5FF0020FD
S113104038BD00BF00350A00842C002000100020A9
S1131050802C00202DE9F74F0688DFF8A4B09846CD
S113106003795E43254B14464FF48042C3F89C2019
S11310700134A4B20546407B0F4605F0A9FE2302C5
S113108043F001031E48ADF8063002220DF10601BB
S11310900134FFF757FF2402F610A4B24FF0000901
S11310A008F1FF3AC1450ED11548FFF759FFA87B57
S11310B005F08EFE134B4FF480420020C3F89C20B1
S11310C003B0BDE8F08F394632465846FFF73AFF81
S11310D0CA4514BF44F0FF034FF6FF7302220DF11B
S11310E00601584604F58074ADF806303744FFF71E
S11310F029FF09F10109A4B2D4E700BF00A000460A
S11311000010002000A00044034B04481B78002B6F
S113111008BF0020704700BF802C0020842C0020D2
S11311201FB5054B0FCB6C4684E80F002046FFF734
S113113061FF04B010BD00BF108D0000FEE7000089
S113114008B500F059F8064B0649074A8B4201D30B
S1131150FFF700F852F8040B43F8040BF6E700BF5E
S1131160001000206C110020A49F0000004870476C
S1131170005A6202104AD2F8943003F00703023B8B
S1131180032B13D8DFE803F00C14020E0B4B1B687F
S1131190D2F80001C0F304200130B3FBF0F0704733
S11311A0074BF4E7074B1B685B08F1E7054BEEE7D9
S11311B04FF40043ECE700BF00400E402010002035
S11311C0181000201C10002008B5FFF7D3FF054BB2
S11311D0D3F80831C3F308230133B0FBF3F0024B17
S11311E0186008BD00400E4014100020014B186820
S11311F0704700BF18100020044B054A9A60D3F8CA
S1131200882042F47002C3F88820704700ED00E0A3
S1131210000000004FF4004070474FF47A707047AC
S1131220014B1868704700BF2010002005490A6868
S11312301318054883428CBF4FF0FF320B601046F1
S1131240704700BF241000200000042070B505463C
S11312500E46144600F07AFE296881EA040202EA86
S113126006044C402C60BDE8704000F073BE0000E2
S1131270B0F1804F38B504460D4606D01D4B984258
S113128003D01D48A22100F081F82B693F2B03D91C
S11312901948B62100F07AF8EB683F2B03D91648B9
S11312A0B72100F073F86B683F2B03D91248B821BB
S11312B000F06CF86B682A781B0643EAC27343F4A7
S11312C000432360EA682B7A43EA0243A3622A6953
S11312D06B7A43EA0243E362AA7A084B43EA027355
S11312E0636004F1424404F5801464012B7D23609F
S11312F038BD00BF00040040208D000000FD000444
S1131300B0F1804F13B50A46044608D0074B984203
S113131005D001910648F52100F038F8019AFF2123
S1131320201D02B0BDE81040FFF790BF000400404C
S1131330208D0000B0F1804F10B5044607D0064B55
S1131340984204D0054840F21B1100F01FF82368AE
S113135023F00103236010BD00040040208D000031
S1131360B0F1804F10B5044607D0064B984204D024
S113137005484FF49C7100F009F8236843F0010319
S1131380236010BD00040040208D0000FEE7000033
S11313900C4B984210D90C4B984210D902220123CD
S11313A00A490B640A49D1F8003123F0807343EAF7
S11313B00263C1F80031704700221346F0E70122AE
S11313C0FBE700BF0048E8010090D0030000C843D9
S11313D000400E4038B5114B5B68114B00221C468F
S11313E0C9B21D798D4202D11D68854212D20132E3
S11313F0052A03F10803F4D10A4841F23A41FFF700
S1131400C5FF032205494B6823F0407343EA026396
S11314104B6038BD04EBC2025279F3E700000E4082
S1131420488E0000508D00001F2810B5044604D9D2
S1131430034840F22F11FFF7A9FF0120A04010BD7F
S1131440B38D000038B5074C41F67133256C236425
S1131450FFF78CFE0021FFF7BDFF0DB100232364CD
S113146038BD00BF00000E40044BDB6B5B0604D4A8
S1131470034AD2F8C830002BFBD1704700300E402D
S11314800000C64308B5FFF7EFFF024B5868C0F3EE
S1131490014008BD00300E40044BD3F84421D2076C
S11314A003D4D3F840211042FBD1704700400E40D2
S11314B038B5054C41F67133256C2364FFF78AFF78
S11314C00DB10023236438BD00000E4038B5C0F3CD
S11314D00323013B092B24D8DFE803F02A2D23231F
S11314E0051619231C20154C0023C0F3043513B131
S11314F01846FFF7D1FF04F1424404F5801405EBCC
S1131500C404A400216038BD0D4C0123EDE70D4C4B
S11315101023EAE70C4C4FF48033E6E70B4C00232E
S1131520E3E7BDE838400A4841F6D711FFF72EBF7C
S1131530084C0023D9E7084C0023D6E7B0400E40FE
S1131540E0400E40E8400E40F0400E4050410E4056
S1131550508D000000400E40C0400E4008B5C0F35E
S11315600313013B092B60D8DFE803F0050B0F19C7
S11315705F5F1F233C532E4BD3F80001C0F30420BC
S113158008BD2B4BD3F81401F8E7294BD3F800011D
S1131590C0F300600130FFF747FF0138F0E7244B48
S11315A0D3F80C01C0F30820EAE7214BD3F8080173
S11315B0F8E7204B984209D01F4B98420CD041F6D3
S11315C07B311E48FFF7E2FE0020D9E7184BD3F821
S11315D0200100F00F00DEE7154BD3F82001C0F323
S11315E00110D8E7164B984208D003F5B01303F561
S11315F08053984206D041F69F31E2E70C4BD3F872
S11316002801ECE70A4BD3F82801C0F30120043089
S1131610C1E70C4B984205D1054BD3F8300100F0DB
S11316200300ADE741F6AE31CBE741F6D331C8E76D
S113163000400E408006160080162E00508D0000DB
S113164090171A00A009140008B5FFF787FF0130AE
S113165008BD000000F00F00013808B5072844D881
S1131660DFE800F0040F1943232D4335264BD3F84C
S1131670943003F00703023B052B3DD8234AD05C8A
S113168008BD214BD3F8803003F00703013B032B43
S113169034D81F4AF3E71C4BD3F8843003F0070314
S11316A0013B032B2AD81B4AE9E7174BD3F88830B0
S11316B003F00703013B032B20D8174ADFE7124B43
S11316C01B6F13F0010F0CBF07200920D8E70E4B46
S11316D0D3F85C3103F03003202B11D0302B11D020
S11316E0102B14BF01200720CAE70C4841F62771CC
S11316F0FFF74CFE0020C3E70520C1E70120BFE748
S11317000420BDE70820BBE700400E40198E00000E
S11317101F8E0000238E00001F8E0000508D0000DD
S113172038B52C4B984205460AD02B4B984207D02B
S11317302A4B984204D02A4841F23A51FFF726FE38
S11317402846FFF787FF234B9D42044611D0224BC6
S11317509D4212D0214B9D4213D1224BD3F880409D
S113176004F00704042C2DD8DFE804F02A11151D19
S113177019001C4BD3F88440F2E71A4BD3F8884085
S1131780EEE7174841F26951FFF700FEEAE7BDE8CA
S11317903840FFF73FBDBDE83840FFF741BDBDE825
S11317A03840FFF73ABDFFF7E5FC0E4B0446D3F88B
S11317B00001C0F300600130FFF736FEB4FBF0F423
S11317C0204638BD064841F2BB51FFF7DFFD002437
S11317D0F6E700BF030020000500240002001E00FD
S11317E0508D000000400E4038B500F47813B3F576
S11317F0B01F05467FD02ED8B3F5402F69D011D83D
S1131800B3F5802F54D006D843B1B3F5003F5AD076
S113181041F607311AE0B3F5202FF9D1BDE838407D
S1131820FFF7A8BCB3F5801F00F0A280B3F5A01F9A
S113183057D0B3F5602FEBD15B48FFF70BFF0728B8
S113184000F096800928E9D041F2FC215748FFF7BF
S11318509DFD002036E0B3F5381F5AD013D8B3F5F8
S1131860001F5FD00AD8B3F5D01F5DD0B3F5F01FC9
S1131870CED14F48BDE83840FFF752BFB3F5101F33
S1131880C6D14C48F6E7B3F5481F57D0B3F5781FD7
S113189000F08280B3F5401FBAD14748FFF740FFFC
S11318A0464B0446D3F82801C0F3012004302BE052
S11318B0FFF760FC414BD3F80C31C3F30823013329
S11318C0B0FBF3F038BDFFF755FC3C4BD3F80831BF
S11318D0F3E7FFF74FFC394BD3F81431C3F3042378
S11318E0EDE73448FFF71CFF344BD3F8303103F0F5
S11318F00303D840E6E72E48FFF712FF2F4B0446B8
S1131900D3F8200100F00F00FFF78EFDB4FBF0F0D8
S1131910D8E72748FFF704FF284BD3F82031C3F357
S11319200113E6E72448A5E72348FFF7F9FE234B14
S11319300446D3F82801C0F30110E5E72048FFF777
S113194089FE0138072824D801A353F820F000BFEA
S11319505318000093190000931900007719000030
S11319609319000093190000711900007F190000F9
S1131970144B1868A6E7BDE83840FFF737BCFFF7FB
S1131980F9FB0E4BD3F80031C3F3042303FB00002F
S113199098E741F2333159E7FFF7ECFB0446284658
S11319A0FFF752FEB2E700BF06000E00508D0000A4
S11319B002001E00050024000300200000400E4029
S11319C0B800320028100020013838B50C4603282E
S11319D064D8DFE800F002441A2FB1F5007F04D385
S11319E0324842F22571FFF7D1FC314AC4F30804AE
S11319F0D2F86838002BFBD12E4A136A23F4FF7304
S1131A0023F001032343136238BD7F2904D92748F7
S1131A1042F23271FFF7BAFC254A04F07F01D2F892
S1131A206038002BFBD1234B1C6924F07F040C434A
S1131A301C61E9E77F2904D91C4842F24D71FFF784
S1131A40A5FC1B4A04F07F01D2F86438002BFBD1BB
S1131A50184B9C6924F07F040C439C61D4E7154D1A
S1131A60D5F890305B0704D5104842F25D71FFF75A
S1131A708DFC6B6A23F0300343F010036B62C4F3F4
S1131A80C311CB1C2A6B0C490F2B01EA020128BF9E
S1131A900F23214341EA03712963B5E7BDE83840C8
S1131AA0024842F27771FFF771BC00BF508D00000D
S1131AB00020C84300400E4000F8FF0F022810B574
S1131AC00C4604D0144842F28F71FFF75FFC134BAD
S1131AD05B6A13F0300F1BD0202C16D0302C17D09B
S1131AE0B4B10D4842F2AA71FFF750FC0C4B0B4AFB
S1131AF0D2F8901033EA0101FAD15B024ABFD2F85E
S1131B00A0000120C0F3802010BD4FF40003EEE7D5
S1131B104FF44003EBE700BF508D000000400E403F
S1131B20FF33E107022808B50CD129B1094B4FF462
S1131B308060C3F8A80059664AB1BDE80840022095
S1131B40FFF7BCBF044842F2E071FFF71FFC01201D
S1131B5008BD00BF00400E40508D000004282DE950
S1131B60F04704460F4691461FD83D4B3D4A13F8B3
S1131B7000A03D4B13F80080F1B93C4B33F8103012
S1131B801366012303FA08F8D2F8903013EA080F19
S1131B90FAD1B9F1000F5AD00125324A05FA0AF5F3
S1131BA0D2F890302B42FBD151E0BDE8F0473048E9
S1131BB042F27461FFF7EABB2E4B022833F810603F
S1131BC047D1536A13F0300F43D12B4BDB6B5A05CB
S1131BD004D4274842F28361FFF7D8FB214A536AB1
S1131BE0DB0705D5536A23F0300343F01003536237
S1131BF0224D1C4BA8441E664FEA8808D8F80030D2
S1131C00002BFBD0B9F1000F21D05544AD002B6857
S1131C10002BFCD0022C1AD1CFB1124F796A11F0EB
S1131C20010118D0012220212046FFF77BFFD7F8BD
S1131C309C40012200210220FFF790FFC4F30A0117
S1131C400220FFF7C1FE3E662B68002BFCD0BDE8E6
S1131C50F0870027CCE72046FFF730FFE7E700BF17
S1131C60278E000000400E402C8E00003C8E0000A9
S1131C70508D0000328E000000300E408004F210BF
S1131C80112838B50C460FD000F00F000138072892
S1131C9000F2EB80DFE810F0240066009A00E9000F
S1131CA07D00B400E900C200042912D1FFF79EFAB6
S1131CB00546A8B10021284600F056FA023C0A2C39
S1131CC045D8DFE804F04A473137444444443D0FE3
S1131CD04D00052904D1664B1D68664B9D42E9D829
S1131CE00025EBE70320052401221146FFF736FF08
S1131CF0FFF7A8FB0DB1FFF7B7FB5F4B5C67FFF77E
S1131D0063FA0446FFF736FAFFF742FBFFF7BAFB24
S1131D1001462046FFF7CCFB002D5DD1284601216A
S1131D20BDE8384000F020BA5448FFF731FB0220E8
S1131D300446D9E75148FFF72BFB01240320D3E7DE
S1131D4041F6E871BDE838404D48FFF71FBB41F646
S1131D50ED71F7E701200324C6E700200424C3E75C
S1131D600724C5E7062933D14548464D42F22C01E4
S1131D70FFF70CFB424842F23C01FFF707FBFFF779
S1131D80F9F9FFF705FB404B0122C3F808260323AA
S1131D9021E006293D4DEDD0013C092C2BD801A3AF
S1131DA053F824F0FD1D0000DB1D0000E91D0000B8
S1131DB0F71D0000F71D00007F1D0000F71D000047
S1131DC0F71D0000F71D0000D51D0000304DE3E7AE
S1131DD02C4DE1E704232B6038BD0122114600207D
S1131DE0FFF7BCFE0223F6E7012211461046FFF777
S1131DF0B5FE0123EFE742F26701A3E70023EAE718
S1131E00072904D0092906D042F2F1019AE71A4BB6
S1131E1000221A67E0E7184B0122FAE74C1E072C50
S1131E201ED8DFE804F0201D1D161D1D0F0403221B
S1131E301149D1F85C3123F0300343EA0213C1F8AD
S1131E405C31C9E7012211460420FFF787FE012215
S1131E50EEE7012211460220FFF780FE0222E7E7A7
S1131E6042F24F116EE70022E2E742F2262169E7CF
S1131E701C100020002D310100400E400148E801F3
S1131E80508D000080400E400010C84388400E4032
S1131E9084400E4010B504461120FFF7DBFB0428F4
S1131EA004D1274842F20F51FFF770FA01220021B2
S1131EB00220FFF753FE63781BB9A3780BB9E378CC
S1131EC023B11F4842F24B51FFF760FA237C012BE8
S1131ED004D11B4842F25251FFF758FA194A217CA7
S1131EE0536A23F00103022908BF43F0010353623C
S1131EF0154B2178C3F8A014637AA18843EAC1235F
S1131F00D362136BA07A217A03F07F630343E088E2
S1131F1043EAC02343EAC11303310F2928BF0F2129
S1131F2043EA01731363A37B617B1B0143EA01331F
S1131F30E17B0B43217B43EA0143536310BD00BFA4
S1131F40508D000000400E400000C843EFF31080A5
S1131F5072B6704700B962B67047EFF31180602320
S1131F6083F31188704780F311887047034B5868D6
S1131F70C0F30800003818BF0120704700ED00E0EE
S1131F80EFF31083DB0706D4EFF311805F2894BFCF
S1131F90002001207047012070470000034BD86BDC
S1131FA080F04000C0F38010704700BF00300E4046
S1131FB038B542EA0323B3F5007F05460C463ED00C
S1131FC019D8B3F5807F36D00AD883B3012B21D03A
S1131FD01F4840F68E11FFF7D9F9002213461FE07F
S1131FE040F201129342F3D11A4BD3F824321A0E61
S1131FF0C3F3074314E0B3F5407F24D040F2013229
S1132000934210D040F201229342E1D1114BD3F814
S1132010283202E00F4BD3F82432C3F30722DBB299
S11320202B60226038BD0B4BD3F82832DFE7094B15
S1132030D3F81C32F1E7074BD3F81C32D7E7054B32
S1132040D3F82032E9E7034BD3F82032CFE700BFBF
S1132050708E00000081E00F08B5FFF79FFF20B1EC
S1132060024AD2F8C830002BFBD108BD0000C64399
S11320701A4B022810B5D3F830320C4612D003287C
S113208013D0012814BFDBB2C3F307231B0323F4CB
S11320907042ECB95AB140F61D111148FFF776F9B8
S11320A0002010BDC3F30743F0E71B0EEEE70D4914
S11320B0CA6E22F470421343CB660120F1E709494A
S11320C0D1F8EC2022F470421343C1F8EC30F4E769
S11320D0002AF4D040F62911DFE700BF0081E00FA9
S11320E0708E000000300E40F8B504460F46FFF72E
S11320F055FF78B3FFF7B0FF174B5B68C3F3014399
S11321009C4227D0154BD3F80061FFF733F8022C1B
S113211005460FD1124BC6F3042606FB00069E4269
S113212004D9104840F23161FFF730F90221284602
S1132130FFF7BEF9C4F1020210239340064A13616B
S11321400FB1FFF789FF2CB921462846BDE8F840B6
S1132150FFF7AEB9F8BD00BF00300E4000400E409E
S1132160002D3101708E000013B50246FFF716FFF3
S1132170C8B152B90D4B0191D3F80041FEF7FAFFF3
S1132180C4F30422019902FB0002094B1B7843B1FA
S1132190084B9A4205D8022002B0BDE81040FFF770
S11321A0A3BF0020F8E702B010BD00BF00400E40FE
S11321B09A2C0020002D3101094942780B6823F440
S11321C0407343EA0223022A0B6008D1054B5B6A81
S11321D09B0004D5044840F26D61FFF7D7B87047FF
S11321E000300E4000400E40708E0000224B4AF634
S11321F0E85210B5596B5A639A6FD207FCD41B6C22
S113220013F003031EBF1D4A0124C2F8B44A8342DB
S113221004D110B9194BC3F8B40A10BD032B00D074
S11322209BB9431E012B10D8134A4FF40023D362E9
S1132230936FDB07FCD4136C23F0030343F0010317
S113224013640D4A536A1C03FCD50B4B9A6FD207D7
S1132250FCD41A6C22F0030202431A649A6F12F03F
S11322600102FBD10038054C18BF01200129C4F834
S1132270B40A08BF5A63D0E700300E400000C643DA
S11322802DE9F04FA0F5E16389B00024B3F5966F12
S1132290CDE90244CDE90444CDE9064406468A4624
S11322A0934605D940F6EE215548FFF76FF8A3E0B1
S11322B0B0F5E16F534B8CBF0122002249D1D3F812
S11322C01832C3F30721DBB2079104934FF4167558
S11322D04FF4966748E0BBF1000F0ED0D9F85C20AC
S11322E022F4FE4222F00202B6F5E16F42EA012234
S11322F018BF02200243C9F85C20BAF1000F26D0AF
S113230020460021FFF7B4FE044610B940F64B31D5
S1132310CAE701214046FFF7ABFE044610B940F678
S11323205331C1E7384A536EBD4238BF3D4623F4AA
S1132330FF73E72D23F0010328BFE725B6F5E16F0E
S113234018BF43F0010343EA4503536654E00124F4
S113235052E0D3F81832190EC3F3074307910493DC
S11323604FF496654FF4E167DFF89C90D9F84C4040
S11323700192C4F30174234605A902A8FFF718FECD
S1132380D9F8EC30019AC3F30128434606A903A8FF
S1132390FFF70EFE049BF01B079FF91A4143B1FBA4
S11323A0F5F299182CBF012300238F421ED3EBB9F9
S11323B0069A039FD31B4343B3FBF5F3FF182CBFCB
S11323C001230023BA4211D383B9059B029AA3EBDC
S11323D0020C00FB0CF0B0FBF5F555192CBF0120E5
S11323E00020AB4202D300283FF475AF044840F606
S11323F03C31FEF7CBFF0024204609B0BDE8F08F46
S1132400708E00000081E00F00300E40334A08B5A2
S1132410136FD16C11F0010F03F0060344D0002BAD
S113242042D0132857D9143813288CBF10230823FB
S11324302A49013BCA6C180322F47F4240EA032371
S11324401343CB64264BCA6C1B88C2F30322283384
S1132450013202EB820003EB5303B3FBF0F3C86CCD
S1132460013B072B28BF072320F0EE6040EA0363FB
S113247043F48013CB641B4BB3F90030002B12DB05
S113248003F12800C0F34E030344500800EB42025A
S1132490B3FBF2F20B6D072A28BF072223F0700367
S11324A043EA02120A6508BDD16C01F00101194327
S11324B004D109280FD90A380928B6E7D26CD20703
S11324C002D50BB92728B0E7074840F69131FEF74B
S11324D05DFF0023ACE70423AAE700BF00300E40F1
S11324E0962C0020982C0020708E00000C4BD3F802
S11324F0803910B5044633B9012804D9094840F697
S1132500AF31FEF743FF084A136F23F00703234359
S11325101367064BBDE810401888FFF777BF00BF6C
S11325200000C643708E000000300E40942C002042
S113253038B55A4B02229A639B6B03F00F03934204
S1132540044607D0564840F64B21FEF71FFF0025EE
S1132550284638BD0389C82B04D9514840F6552173
S1132560FEF714FFA28823899A4204D94C4840F606
S11325705621FEF70BFFB4F90C30C82B04DD484894
S113258040F65721FEF702FF6378012B55D1A3884B
S1132590C82B04D940F65B214148FEF7F7FEE288D8
S11325A042F210739A4204D93D4840F66821FEF77E
S11325B0EDFEE3884A2B48D9B3F5FA7F47D340F6BA
S11325C0C312934294BF4FF000524FF0405233492C
S11325D0B4F90C00CB6C23F0405323F00103002822
S11325E0A8BF43F001031343CB64D1F8EC30A288B5
S11325F043F44073C1F8EC302A4B1A80CB6E43F09D
S11326008073CB66284BD3F8800900B10420FFF710
S11326106DFF264B21891980254BB4F90C20A08825
S11326201A80FFF7F3FEA37BA3B1012B22D01C4831
S113263040F6CE01FEF7AAFE0FE0022BAFD1A3882D
S11326400A2BACD94FF42661A6E70022BFE74FF06E
S11326508052BCE7114B174A9A65012260881146E3
S1132660FFF70EFE054640B90D4840F69F21FEF7E0
S11326708DFE6DE7094B104AEEE7084AD36B43F42D
S11326808063D3636078FFF7B1FDA37AA3F12002DE
S113269053425341044AC2F8943759E700300E407C
S11326A0708E0000942C00200000C643962C00205D
S11326B0982C002077402057372110B70C4B02226A
S11326C010B59A63DA6B42F48062DA639A6FD207C8
S11326D0FCD403221A641B6C93420CBF0124002413
S11326E004D0044840F6DD31FEF750FE204610BD0C
S11326F000300E40708E000038B50D46044618B305
S1132700012824D0022825D0032826D004280ED05E
S1132710052825D0831F012B09D9082823D009288F
S113272023D00A2803D10723EB40DB0704D4104845
S113273040F21341FEF72AFE30200E4B01214443A0
S113274001FA05F51D5138BD40F2FF33ECE74FF6B1
S1132750C073E9E740F6FF73E6E74FF47F43E3E72E
S11327604FF6FF73E0E70F23DEE74FF44043DBE768
S1132770D38E00000CA0004638B50D46044618B3AD
S1132780012824D0022825D0032826D004280ED0DE
S1132790052825D0831F012B09D9082823D009280F
S11327A023D00A2803D10723EB40DB0704D41048C5
S11327B04FF47971FEF7EAFD30200E4B01214443BA
S11327C001FA05F51D5138BD40F2FF33ECE74FF631
S11327D0C073E9E740F6FF73E6E74FF47F43E3E7AE
S11327E04FF6FF73E0E70F23DEE74FF44043DBE7E8
S11327F0D38E00000CA0004470B505460E46144666
S1132800FFF7A4FB296881EA040202EA06044C40AB
S11328102C60BDE87040FFF79DBB0000032838B56D
S113282004460D4607D9042808D0052803D0A0F192
S11328300803022B02D835F0011303D008487D2188
S1132840FEF7A4FD3020604300F180402A464FF09B
S11328500111BDE8384000F52040FFF7CDBF00BFAF
S1132860378F00002DE9F0410E4615461F460446F9
S113287000285FD0012860D0022861D0032862D0EC
S113288004280ED0052861D0831F012B09D90828FC
S11328905FD009285FD00A2803D10720F040C3077E
S11328A003D43748BF21FEF771FD86EA050333F0F0
S11328B0030303D03248C121FEF768FD072D06F05B
S11328C003064FF00F0149D84FEA85082D4804FA52
S11328D008F201FA08F1FFF78FFF03212A4806FAEC
S11328E008F201FA08F1FFF787FF1F2D03D92748E3
S11328F09121FEF74BFD264C2C44A4001F2D27608C
S113290003D922489121FEF741FD9DF81830C4F8FF
S11329108030204A0123AB401F2DC2F8243403D950
S11329201A489121FEF732FD9DF81C30C4F800339B
S1132930BDE8F08140F2FF30B0E74FF6C070ADE77C
S113294040F6FF70AAE74FF47F40A7E74FF6FF7009
S1132950A4E70F20A2E74FF440409FE7A5F1080841
S11329604FEA88080C4804FA08F201FA08F1FFF764
S113297043FF0321094806FA08F201FA08F1B2E715
S1132980378F000000A4004008A400409B8F000083
S11329908020851000A0004004A400400CA4004046
S11329A0F8B50D4616461F460446D8B301283CD058
S11329B002283DD003283ED004280ED005283DD05F
S11329C0831F012B09D908283BD009283BD00A28AA
S11329D003D10723EB40DB0704D4274840F21D1141
S11329E0FEF7D4FC26B1294620467FB3FFF784FEC8
S11329F03020604300F18040072D00F5204028D8A6
S1132A004368AA000F21914023EA010306FA02F267
S1132A101343436076BB294620463FB3BDE8F840E4
S1132A20FFF76ABE40F2FF33D4E74FF6C073D1E735
S1132A3040F6FF73CEE74FF47F43CBE74FF6FF73C7
S1132A40C8E70F23C6E74FF44043C3E7FFF794FEFC
S1132A50CEE7A5F1080382689B000F21994022EA82
S1132A60010206FA03F313438360D3E7BDE8F84099
S1132A70FFF782BEF8BD00BF378F0000022838B5CB
S1132A8004460D4603D911484C21FEF77FFC6B79AF
S1132A901F2B03D90D484F21FEF778FCAB786A78D9
S1132AA09B0143EA82032A781343EA7843EA021338
S1132AB02A7943EAC2236A7943EA0233AA790434BD
S1132AC043EA42432401024A135138BDFE8F0000F9
S1132AD000200440014B1860704700BF000084428E
S1132AE0427801790378002A827870B514BF0426ED
S1132AF00026002AC27814BF10250025002A427936
S1132B004FEA023242EA012242EA0302837914BF05
S1132B1020240024002BC37942EA034343EA06033A
S1132B20027A43EA050314BF4FF400410021234312
S1132B30002A14BF4FF4003200220B431343014A0E
S1132B40136070BD0020044070B506460C4615465F
S1132B5022B90D484FF42271FEF718FC1CB90B483A
S1132B60FEF742FE04460A4B6D00013CB4FBF5F44B
S1132B7013EA04234FEA042504D0034840F2A521B4
S1132B80FEF704FC756170BD6290000040410500D1
S1132B90070080FF38B51E4B1E4D984204460ED0E8
S1132BA0A8420CD003F50063984208D003F5806373
S1132BB0984204D0184840F22E41FEF7E7FB40F655
S1132BC0AA63E36041F20502002323606260134AB2
S1132BD0A3606361E364A26423666367A367E36736
S1132BE00B4B9C4209D0AC4207D003F500639C42D6
S1132BF003D003F580639C4201D1002323650023A5
S1132C00AC42A36502D0064A944200D1E36538BDC4
S1132C10000001400004014062900000F9FF01003F
S1132C20000C014038B52A4B984204460D4610D09A
S1132C3003F5806398420CD003F58063984208D072
S1132C4003F58063984204D022484FF45671FEF78E
S1132C509DFB2046FFF79EFFA97B2A8A2368002953
S1132C6042F0010214BF4FF48061002113430B436F
S1132C702A7D23602368002A14BF4FF000520022EB
S1132C8013432360AB7C1BB1EB7C43F08003A3654F
S1132C902B7B43F480536360D5E901122046FFF790
S1132CA053FF6B7B0BB11023E3606B7D1BB1236877
S1132CB043F480332360AB7DEA7D1B07120503F0E8
S1132CC0E04302F4E002134323662B78E36038BD4B
S1132CD0000001406290000003695B06FCD541637B
S1132CE0704700002DE9F047374FDDE908840646B8
S1132CF0154699468A4641B9082323704FF4D9638F
S1132D00A360324B6760E360FEE75AB1531E13427F
S1132D1008D00823237040F2CB63A3602B4B676079
S1132D20E360FEE7FFF719F9002D08BF04254D45C0
S1132D3038BF4D46D6F808E06B1E13EA0E0FC5F1F6
S1132D40000202EA0E0208BF0025154409F1FF3310
S1132D50AA4413EA0A0FC9F1000202EA0A0208BFF0
S1132D604FF0000902EB090372680132A2EB0E0175
S1132D70A3EB0E0E7145844615491AD2B8F1000F23
S1132D8002D09B1AC8F80030162540F22273C4E919
S1132D900231257067606046FFF7E5F840F2D763BB
S1132DA0A3600A4B25706760E36000252846BDE8F0
S1132DB0F087B360002323704FF4E563C4E9023164
S1132DC06760FFF7D0F8F1E7C79000005691000064
S1132DD03E91000030B50C4685B011461D461BB926
S1132DE0039200F019F80399064801950023009313
S1132DF004220123002C18BF2046FFF773FF05B0FF
S1132E0030BD00BF2C100020024B00221A6002F0DB
S1132E10DBBF00BF9C500020FEE702F0EDBF0000C6
S1132E20014B1860704700BF9C50002070470000A1
S1132E302DE9F041044608B9FFF7EEFFFFF796F8D5
S1132E40194E1A4D074638B1202323704FF44773A7
S1132E50C4E902356660FEE7154B1B78012B08D0E8
S1132E600223237066604FF44873C4E90235BDE859
S1132E70F081DFF8408098F80030F92B05D91E2343
S1132E802370666040F22533EFE7FFF766F898F8A1
S1132E900030013388F80030FFF765F8277066606A
S1132EA04FF44C73E1E700BF70910000639200009F
S1132EB05C5500205D55002070B5044608B9FFF745
S1132EC0ABFF264B1E78012E09D013232370244B0D
S1132ED0636040F2F933A360224BE360FEE7224BC8
S1132EE01B88022B09D8092323701D4B636040F211
S1132EF00443A3601B4BE360FEE71C4D2B784BB1EE
S1132F001F232370164B636040F20743A360154BE5
S1132F10E360FEE7FFF734F848B11F232370104B3A
S1132F20636040F20A43A3600E4BE360FEE701F0E6
S1132F30C5FC0F4B0F4A18700F4B2E7018700C23E2
S1132F4058430E4B1B5813600D4A136001F064FF85
S1132F5002F078FFBDE87040FFF75EBF3E520020EC
S1132F60709100004D920000845600205C550020B2
S1132F705352002078560020525200205C52002008
S1132F807456002008B501F099FCA0F140035842A2
S1132F90584108BD30B14368C1F8F0308368DB683C
S1132FA0C361704791F83030022B03D0072B05D052
S1132FB0034B00E0034BC1F8F0307047024BFAE7D3
S1132FC0F3910000E3910000EA910000044BC1F882
S1132FD0F03018B1826802B1D368C361704700BF92
S1132FE0F39100000023C0E90033038170470368B4
S1132FF010B533B901220281C1E90933016041608E
S11330001CE0028991F833400132028193F83320A5
S1133010A2420CD85B6A002BF8D14B6243688B62E6
S11330205962ECE7C1E909325162996206E09A6A91
S1133030002AF7D1C1E909329962016010BDC36A5F
S11330405BB19A68526A4AB9C3E902221A8A013A00
S11330501A820023C0E90933C3627047D0E9092109
S113306011B991629A60F1E74A620AB9D960EDE751
S11330709162EBE738B5C56AAB685B6A4BB1FFF7A1
S1133080DEFFC562014605F10800BDE83840FFF7E0
S1133090AEBF38BD054B40220021013AC3E90011FF
S11330A0198103F10C03F8D1704700BF5C52002072
S11330B070B5044608B9FFF7AFFE994D6A68D2B1FE
S11330C02B68984E4BB92346296B97489200FFF71B
S11330D081FE306023780BB170BD3360934B32684E
S11330E01A60934A6B6813609249934A9B00136079
S11330F00A6813440B602A89B2B12346296B8F48AE
S11331001201FFF767FE8E4B18602378002BE3D182
S11331108C4B8D4A18602B89138086498B4A1B017E
S113312013600A6813440B606A69002A27D02B696C
S1133130874E002B62D12346296B86489200FFF705
S113314049FE30602378002BC6D1834B2A7E1A7047
S1133150824BEA691A60824B32681A606B69EA68CA
S113316064215A43B2FBF1F27E490A607E4A7149F6
S113317013607E4A9B0013600A6813440B606A6AFA
S1133180002A28D02B6A7A4E002B39D12346296B8A
S113319078489200FFF71EFE30602378002B9BD105
S11331A0754B95F828201A70744B32681A606B6A54
S11331B0EA6864215A43B2FBF1F271490A60714A28
S11331C0E96A1360704A9B001360704A11605949A0
S11331D00A6813440B606E4E6B6B336002F0E6FEBC
S11331E003F096FB054668B101232370694B6360C5
S11331F040F2AF13A360684BE3606DE73360A4E76C
S11332003360CDE703F084FC3668644BB042024679
S1133210186009D2092323705E4B636040F2B51332
S1133220A3605D4BE360FEE700F0E2802B460020E4
S1133230012105F01BFA7043594BB6F57A7F1860EB
S113324008D9324600230020012105F00FFA4FF47B
S11332507A754543534B544A1D6000231370534AF7
S11332601370534A1360534A1360534A1370534AFA
S11332701370534A2046137002F092FA0A23B0FBEB
S1133280F3F0504B18602578002D7FF425AF284AC1
S1133290136853B12549086838B10146013B41F828
S11332A0045BFBD1116801F0E5FF474B00251D705D
S11332B001F0FCFAFFF7EEFE444B1D60444B1D8009
S11332C0214B1B88002B40F09580424A0023136059
S11332D0414A1380414A1360414A1380414A1360B2
S11332E0414A2046138001F041FF2378002B7FF4EC
S11332F0F3AE204601F05CFD2378002B7FF4ECAEA6
S1133300204602F097FC2378002B7FF4E5AE00F012
S1133310BBFBFFF78BFD354B01221A70DCE600BFC7
S113332040100020A4500020F5910000A850002077
S1133330AC500020A0500020B050002008920000A3
S1133340B4500020B8500020BC500020C0500020D1
S1133350CC5000201A920000C4500020C850002015
S1133360D0500020D4500020D8500020DC50002041
S1133370EC50002033920000E4500020F050002074
S1133380F4500020F8500020FC500020E8500020A9
S1133390E0500020709100006F920000285100203E
S11333A004510020005100205C5500205D55002090
S11333B074560020785600205252002053520020A8
S11333C064550020605500208656002038520020A5
S11333D03C5200204C5200205052002054520020F5
S11333E058520020685500206C5500203E520020A1
S11333F0284621E7204600F05DFF2378002B3FF4A8
S113340064AF69E690F833300B490C22534330B56E
S1133410CA58CC1832B901252581C0E90422C85004
S1133420606030BD25890135258100240261446135
S11334305061C850F5E700BF5C52002090F833207B
S11334400B490C235A4330B58C588B1834B90125D9
S11334501D81C0E904448850586030BD1A89013286
S11334601A81002202615A6842611061F4E700BFC8
S11334705C52002010B5044690F8330001F02EFA97
S1133480084B94F833201B789A42204606D1FFF764
S1133490D5FF2046BDE81040FDF747BCFFF7B2FF5B
S11334A0F7E700BF5252002038B50C4691F83210AD
S11334B007290546049807D80239052906D8DFE804
S11334C001F0060605052525FF293AD138BDE26736
S11334D0A4F88030606415B12046FFF7B0FD2146A2
S11334E02846FFF773FD94F83230032B06D104F11C
S11334F0580003F047FA08B1FFF78EFC2046FFF7A7
S1133500B9FF0023238684F83230DFE7E267A4F8AA
S11335108030606415B12046FFF791FD21462846AE
S1133520FFF754FD94F83230072B06D104F158000C
S113353003F028FA08B1FFF76FFC00232386042365
S1133540E1E7BDE83840FFF767BCD0E900329342B9
S113355010B50FD01C690021A24215BF6161C3E9F7
S11335600412C3E90412C2E9043116BF13610260F4
S11335700460436010BD000070B50446D4E904350E
S113358090F83300124A0C21BDB973B94143551860
S113359053502B816B6001F0B7F90023C4E9043365
S11335A02046BDE87040FDF7D6BB48431618318964
S11335B0013931815D611350EFE701FB002211896C
S11335C0013911812B610BB95560E6E75D61E4E7D0
S11335D05C52002013B5044670B1084B1B78012BD4
S11335E00AD10023CDE90033054A816F034605481B
S11335F003F026FA044B1C6002B010BD6455002091
S1133600A93800000C51002008510020F8B50446E8
S1133610A8B1114B1B78012B11D1456F0F4E7DB909
S11336200F4B1F6803F074FA32682B46511E0D4687
S11336301946E7FB0051284605F018F8A067F8BDC5
S113364003F066FA32680023511E0E461946E5FB64
S113365000613046F0E700BF64550020E0500020D0
S1133660605500202DE9F7435E4B1B78012B00D0F9
S1133670FEE75D4B93F80080B8F1000F40F09680B0
S1133680FEF76BFC594F5A4C97F80090594D06467B
S113369001F014F940280346387000F08A800C20A9
S11336A0DFF85C814343B9F1400F58F803302360DD
S11336B003D101F0A3FCAFF3008022682B68DFF88C
S11336C044919A4218D1002001F0C0FD012802D093
S11336D0286802F089FC99F800303BB12068836FB8
S11336E00BB9FFF793FF2068FFF774FF304603B070
S11336F0BDE8F043FEF737BC99F800301BB3DFF8A0
S11337000891D9F800309B6FEBB13B4801A903F055
S1133710BBF930B9D9F80030019A37489A6703F0F9
S113372031F9D9F800309A6F6AB993F8330000EB95
S1133730400008EB8000FFF708FF3B780C2253435E
S113374058F8033023602268D2F8C4300133C2F839
S1133750C4302A4A1368013313603B78402B33D0BA
S11337602B682268934215D0A3B102F045FB2B6865
S1133770D3F8CC3098421FD302F03EFB2B68D3F829
S1133780CC30C01A2A68D2F8D030C2F8C800184425
S1133790C2F8D000246802F02FFBC4F8CC0002F079
S11337A090FB3046FEF7DFFBBFF36F8F03B0BDE83D
S11337B0F083C4F80080CCE702F01EFB2B68D3F83A
S11337C0CC20D2431044DDE701F010FC2C681CB17E
S11337D002F012FBC4F8CC00FDF746F9AFF3008009
S11337E0DDE700BF5C5500205D55002053520020EA
S11337F078560020745600200C5100207C5600207E
S11338005C52002064550020085100202DE9F0414D
S1133810044608B9FFF700FBFEF7A8FB1E4F1F4E36
S113382038B1202323704FF45273C4E90236676021
S1133830FEE71B4B1B78012B08D002232370676023
S11338404FF45373C4E90236BDE8F081DFF85480C5
S113385098F800302BB91F232370676040F251336E
S1133860F0E7FEF77AFB98F80050013DEDB288F8D6
S113387000503DB1FEF777FB2D232370676040F2C3
S11338805933DFE7FEF76FFBFFF7ECFE2570676047
S113389040F26333D6E700BF7091000055920000F8
S11338A05C5500205D55002038B50E4B1B78012B6C
S11338B00D4616D1FEF751FB0023AB670A4B1B687C
S11338C093F833300446094803EB430300EB8300C9
S11338D0FFF73BFE2046FEF746FBBDE83840FFF706
S11338E0C1BE38BD64550020085100205C52002040
S11338F0F8B50C46FEF731FB94F83230013B07462D
S1133900062B48D8DFE803F0544704475B4704001C
S113391094F83030042B08BFE36A4FF0000608BF68
S11339205D6AE667A4F8806018BF354602F064FA61
S113393060642046FFF783FB94F83230032B31D1C7
S1133940FFF798FD84F832604FF44073238615B373
S113395095F8333095F834209A421CD094F83320EB
S11339609A4218D1284600F091FE95F834308342EB
S113397028BF0346D9B295F833308B420BD0284682
S113398001F0B6FD2846FCF79BFD95F8332001466F
S11339902E20FCF743FF3846FEF7E5FABDE8F84071
S11339A0FFF760BE072B04BF042384F83230CBE753
S11339B0002384F832302046FFF75CFDEBE7042354
S11339C084F83230E7E70000F7B504460D4611B33A
S11339D003F09EF8114B1A680026571E46F1FF317A
S11339E0E5FB00713346384604F040FECDE900663D
S11339F001460B4A234604F1580003F021F808B1AC
S1133A00FFF70AFA0323204684F8323003B0BDE8F6
S1133A10F040FFF7B1BD0223F5E700BFE0500020FE
S1133A20F138000037B5144D0B4611462A6882F868
S1133A303030002382F83130104A127804463AB10B
S1133A400F4A104812680191936702F09BFF019995
S1133A502868FFF7B9FF64B1296804F10800CC6253
S1133A60FFF7C5FA2968204603B0BDE83040FFF7E8
S1133A7091BA2B68DC62F5E7745600206455002087
S1133A80085100200C510020774B1B7882B0DBB228
S1133A908DF80530754B1B68DBB28DF80730744B1D
S1133AA01B78DBB28DF80530724B1B78DBB28DF8D6
S1133AB00530714B1B68DBB28DF807306F4B1B6A06
S1133AC0DBB28DF807306E4B1B78DBB28DF8053016
S1133AD06C4B1B78DBB28DF805306B4B1B88DBB26B
S1133AE08DF80630694B1B88DBB28DF80630684BC5
S1133AF01B78DBB28DF80530664B1B88DBB28DF882
S1133B000630654B1B88DBB28DF80630634B1B888F
S1133B10DBB28DF80630624B93F82830DBB28DF8B7
S1133B200730604B1B78DBB28DF805305E4B1B8889
S1133B30DBB28DF806305D4B1B88DBB28DF80630A6
S1133B405B4B1B88DBB28DF806305A4B1B88DBB20B
S1133B508DF80630584B1B88DBB28DF80630574B76
S1133B601B88DBB28DF80630554B5B8DDBB28DF8CC
S1133B700730544B1B78DBB28DF80530524B1B8851
S1133B80DBB28DF80630514B1B78DBB28DF8063072
S1133B904F4B1B6ADBB28DF807304E4B1B78DBB200
S1133BA08DF805304C4B1B88DBB28DF806304B4B3F
S1133BB01B88DBB28DF80630494B1B68DBB28DF8ED
S1133BC00730484B1B78DBB28DF80630464B1B7828
S1133BD0DBB28DF80530454B1B78DBB28DF8053030
S1133BE0434B1B78DBB28DF80530424B1B78DBB2BC
S1133BF08DF80530404B1B78DBB28DF805303F4B18
S1133C001B78DBB28DF805303D4B1B88DBB28DF899
S1133C1006303C4B1B78DBB28DF805303A4B1B88E1
S1133C20DBB28DF80630394B1B88DBB28DF80630D9
S1133C30374B1B78DBB28DF80530364B1B88DBB273
S1133C408DF80630344B9B8CDBB28DF80730334B48
S1133C501B88DBB28DF806309DF805309DF80630E0
S1133C609DF8073002B07047801000207C100020BF
S1133C70781000202C5100208410002030510020A6
S1133C80881000205C5100208A1000208C10002035
S1133C908E1000209410002090100020921000201C
S1133CA06051002096100020981000209A100020E7
S1133CB09C1000209E100020A0100020A2100020C4
S1133CC094510020A4100020A6100020B010002061
S1133CD0C4510020B1100020B2100020A810002010
S1133CE0AC100020B6100020B4100020B510002045
S1133CF0BA100020BB100020BD100020BC10002012
S1133D00BE100020C0100020B8100020C2100020F7
S1133D10C4100020C6100020F0510020C81000205C
S1133D2010B4074C2468A4F8B0200022C4F8A810EA
S1133D30C4F8AC2001215DF8044B1A46FFF772BEAB
S1133D40745600202DE9F04F2DED028B83B0DDE990
S1133D500E6408EE102A05468A4698460CB9FFF709
S1133D605BF80FFA88F3002B0093C0F25081FEF742
S1133D70FDF8002800F04681202323709C4B6360EB
S1133D8040F23513A3609B4BE360FEE71F232370CF
S1133D90974B636040F23913A360964BE360FEE7F0
S1133DA002232370924B63604FF49F73A360914B83
S1133DB0E3604FF0000B57E047F6FF6308EA0303A4
S1133DC0581E01280DD9042B0BD0082B09D0082329
S1133DD02370874B63604FF4A373A360854BE36048
S1133DE0FEE72868844B984209D00C232370804B4B
S1133DF063604FF4AC73A3607E4BE360FEE708F4AA
S1133E00807301930EB100233360FEF7A6F808F027
S1133E100F09B9F1040F074607D0B9F1080F42D0D2
S1133E20FEF7A1F8FEF7F8FF7AE02A6A3AEA0203FD
S1133E3002EA0A0B1ED1019B13B122EA0B022A6289
S1133E406E4A12680AB1C2F8ACB00EB16A6A326046
S1133E503846FEF788F800222270654A62604FF403
S1133E60BB72A260634AE260584603B0BDEC028BA9
S1133E70BDE8F08F009B002B08DAFEF774F81D23D1
S1133E8023705B4B636040F27D138FE75C4B1B78C0
S1133E90002B3BD0FEF767F82D232370544B63604F
S1133EA04FF4C27382E72A6A12EA0A0B16D0019B06
S1133EB013B122EA0B022A62504A12680AB1C2F80C
S1133EC0ACB00EB16A6A32603846FEF74CF8002294
S1133ED02270474A62604FF4D172C2E7009B002B04
S1133EE008DAFEF740F81D222270414A626040F26F
S1133EF0A912B6E7424B1B7843B1FEF734F82D22E2
S1133F0022703B4A62604FF4D872AAE7284618EE42
S1133F10103A42465146FFF703FF3846FEF723F8AE
S1133F20364FFFF79FFBFEF718F83B6893F83120F4
S1133F30032A4BD8DFE802F002263E320EB15B6C56
S1133F403360002323702A4B636040F22D23A36067
S1133F50284BE3603B68D3F8ACB0019B4BB1B9F19B
S1133F60040F02D0B9F1080F3AD12A6A22EA0B02EF
S1133F702A62FDF7F8FF002222701D4A626040F2B7
S1133F806F226EE70EB15B6C3360FDF7ECFF21230B
S1133F902370174B63604FF40E7307E70EB10023D1
S1133FA03360FDF7E0FF22232370114B636040F27E
S1133FB04123FBE60EB15B6C3360FDF7D4FF312384
S1133FC023700B4B63604FF41373EFE60090FDF71F
S1133FD0CAFFFEF721FF23780098002BBAD0E8E649
S1133FE00090FDF7C0FFFEF717FF0098C1E700BF80
S1133FF076920000F4920000464C4147745600202B
S11340005D550020FDF7BCFF00287FF4BFAE094BCF
S11340101B78012B7FF4C4AE002D7FF4CDAE0A23B0
S11340202370054B636040F24313A360034BE360CA
S1134030FEE700BF5C55002076920000F492000079
S1134040054B064AC36100234361136883610BB9BE
S1134050106070475861FBE7F3910000385200206C
S11340602DE9F84F05460F4693461C460BB9FEF75B
S1134070D3FEFDF77BFFDFF88490DFF884800646EB
S113408038B1202323705523C4E90238C4F80490BE
S1134090FEE73DB90A2323705823C4E90238C4F863
S11340A00490FEE7FDF759FF2C223146824628464C
S11340B004F0B4FC0F4BC5F820B0C5E9003705F196
S11340C00800FEF78FFF2846FFF7BAFF0A4A138855
S11340D00133138029463A463720FCF7ABFE50469D
S11340E0FDF741FF70232670C4E90238C4F8049038
S11340F0BDE8F88F464C41473C52002076920000C0
S1134100FF92000010B50023038690F83230C0F807
S1134110AC1004464264072B1AD8DFE803F01212ED
S1134120040412121717032B05D1583002F02AFC8D
S113413008B1FEF771FE2046FFF79CF9002384F8CE
S113414032302046BDE81040FEF779BF0423F6E77D
S1134150FEF762FEF5E700002DE9F84305460F4639
S113416016461C460BB9FEF757FE4E4B1B78012B27
S11341700CD0022323704C4B636040F23233A360B3
S11341804A4BE36000252846BDE8F8834DB90A236D
S11341902370454B636040F23733A360434BE360C5
S11341A0FEE747F6FE731E4209D0082323703E4BF8
S11341B0636040F23A33A3603C4BE360FEE72A6855
S11341C03B4B9A4209D00C232370374B63604FF466
S11341D05073A360354BE360FEE701F00DFE8146AA
S11341E0FDF7BBFEB6F5004F80460BD048F2010345
S11341F09E421BD036B1012E18D0FDF7B4FEFEF757
S11342000BFE02E0296A39432962AF68C5F824909D
S113421087B94046FDF7A7FE234B636040F2623343
S11342202770A360214B2D6AE360ACE7296A21EA79
S11342300701E9E738467F6AB0F8B03003F00F03AE
S1134240042B07D0082B0FD04046FDF78CFEFEF759
S1134250E3FD0EE0D0F8A8102B6A31EA030308D17D
S11342604A46FFF74FFF04E0296AD0F8A830194006
S1134270F6D1002FDED14046FDF775FE330401D49C
S1134280FFF7F0F9FDF769FE2D6AFDF76CFE0023D8
S11342902370054B636040F2A333A360034BE360D8
S11342A071E700BF5C55002076920000E99200009F
S11342B0464C4147154BF0B51C68154B1E8800252C
S11342C0721E04F1100192B22B46AFB2BA4213D857
S11342D0110104EB0212635053601381D3600D4A41
S11342E01381D3809680146003700B4B43605D236D
S11342F083600A4BC360F0BD41E9041321F8083C14
S113430041F8043C01351031DFE700BFB85000200C
S1134310BC500020405200200C9300007E9300000B
S1134320428910B582B1094B01681C680C60416870
S11343301960D988891AD9809988114499800023F1
S1134340C0E9003343818381104610BD40520020F0
S113435038B504460D461022002104F05FFB258188
S113436038BD00002DE9F74F0C9C06468A461746D7
S11343701D460CB9FEF750FDFDF7F8FD48B12023AA
S11343802370864B636040F23313A360844BE36075
S1134390FEE74EB90A232370804B63604FF49B738E
S11343A0A3607F4BE360FEE7C7F30E034BB1082322
S11343B023707A4B636040F23913A360784BE36057
S11343C0FEE73268774B9A4209D00C232370734B73
S11343D0636040F23D13A360714BE360FEE73FB2BC
S11343E0002F0CDBFDF7CCFD48B11F2323706B4B72
S11343F063604FF4A073A360694BE360FEE76A4B0C
S113440093F80090B9F1010F1CD1FDF7A6FD96F8C1
S11344102830DFF89CB18046F3B9DBF800307362D2
S113442086F828900DB1F26A2A609A6B326240468F
S11344309E63FDF798FD00232370584B63604FF48F
S1134440AA7305E002232370544B636040F24513C2
S1134450A360534BE36014E0D6F82490DBF800200B
S1134460914521D1FF2BDFF834914D4F0CD1FDF74D
S11344707AFD1E232370C4F8049040F25D13C4E94E
S1134480023703B0BDE8F08F013386F828300DB150
S1134490F36A2B604046FDF766FD23232370C4F8BE
S11344A0049040F26913EAE7002F0BDAFDF75BFD95
S11344B00DB100232B601D232370384B63604FF430
S11344C0BB73C5E7394B1B785BB1FDF74CFD0DB1F0
S11344D000232B602D232370304B63604FF4C17392
S11344E0B6E792F8331099F833308B420BD948462B
S11344F000F0FEFF4846FBF7E3FF99F8332001463E
S11345002D20FCF78BF9524604213046FFF78AFA36
S11345104046FDF728FDFFF7A5F8FDF71EFDDBF883
S1134520003093F83120032A32D8DFE802F0021376
S1134530271D0DB15B6C2B6000232370174B636048
S11345404FF4D073A360164BE36003B0BDE8F04FA3
S1134550FDF709BD0DB15B6C2B60212323700F4B5C
S113456063604FF4D573EDE70DB100232B60222374
S113457023700A4B63604FF4DA73E3E70DB15B6CAD
S11345802B6031232370054B63604FF4DF73D9E74D
S11345900190FEF741FC0198D7E700BF8D9300001E
S11345A00D9400004D5554585C5500205D55002075
S11345B074560020054B064AC36100234361136807
S11345C083610BB9106070475861FBE7F3910000F9
S11345D04C5200202DE9F04705460F4614460AB90F
S11345E0FEF71AFCFDF7C2FCDFF88090DFF880804C
S11345F0064638B1202323705223C4E90238C4F894
S11346000490FEE73DB90A2323705523C4E9023818
S1134610C4F80490FEE7FDF7A0FC3422314682463C
S1134620284604F0FBF90F4B05F10800C5E90037F3
S1134630FEF7D8FC2846FFF7BDFF0B4A1388013369
S1134640138029463A462920FCF7F4FB5046FDF72F
S11346508AFC6C232670C4E90238C4F80490BDE8CF
S1134660F08700BF4D555458505200208D930000E0
S113467019940000836B00F138028B42186A01D14F
S11346801060704703F120020346F6E7836B3F2076
S113469003B970479A6822B192F83320904228BF38
S11346A010461B6AF4E700002DE9F04F054685B07B
S11346B08B4614460AB9FEF7AFFBFDF757FCDFF84B
S11346C09481604F40B12023237040F25723C4E902
S11346D00237C4F80480FEE745B90A23237040F288
S11346E05A23C4E90237C4F80480FEE7CBF30E036F
S11346F043B10823237040F25D23C4E90237C4F8B0
S11347000480FEE72A68504B9A4208D00C23237099
S113471040F26123C4E90237C4F80480FEE74B4B3E
S11347201B78012B0AD002232370C4F8048040F2C2
S11347306523C4E9023705B0BDE8F08FDFF818A19E
S1134740FDF70BFC6A6ADAF800309A42814608D019
S1134750FDF709FC1B232370C4F804804FF41B737A
S1134760E7E701F049FB95F828300290013BDBB202
S1134770E86285F828304BB14846FDF7F4FB232363
S11347802370C4F8048040F27D23D2E7DAF80000F5
S11347902946FFF76FFFAE685EB96E6285F8286040
S11347A04846FDF7E0FB2670C4F8048040F28A23F3
S11347B0BFE7DAF8001091F8333091F834600393CE
S11347C0B34220D00846FFF761FFB04228BF30460D
S11347D0039BC6B2B34216D20846FEF7CDFEDAF802
S11347E0000080F83360FBF76BFE324601462E2052
S11347F0FCF714F8304600F071F8DAF80000FEF720
S11348001DFE134B1E70A9686962012385F82830C8
S11348108B6B2B62029B8D63009300231A46284600
S1134820FEF742FE4846FDF79EFB1BF4004F01D104
S1134830FEF718FF00232370C4F8048040F2AD2370
S113484077E700BF019400004D5554585C55002093
S1134850525200208D930000745600202DE9F3413C
S1134860846B0546012714B902B0BDE8F081D4F881
S1134870208001F0C1FA2146E06206462846FFF78F
S1134880F9FEA16821B984F8281061624446EAE778
S113489084F828708B6B2362002365621A468C634C
S11348A020460096FEF700FEF0E70000024B0022CF
S11348B0C3E90022704700BF2052002008B5064B10
S11348C0186828B9586801F0B1FA2030C0B208BDA0
S11348D001F0ACFAFAE700BF205200201F28094A71
S11348E007D84FF0004323FA00F013680343136022
S11348F070470123C0F13F0003FA00F053681843E6
S113490050607047205200201F280A4B08D84FF0EF
S1134910004222FA00F01A6822EA00021A60704784
S11349200122C0F13F0002FA00F05A6822EA0002B4
S11349305A607047205200202DE9F3470A9C07462D
S1134940894616461D460CB9FEF766FA0FFA86FA32
S1134950BAF1000F0ADABFB90A2323706A4B636005
S11349604FF49373A360694BE360FEE7FDF7FEFA2F
S11349700028F0D020232370634B63604FF49173BD
S1134980A360624BE360FEE7C6F30E064EB1082354
S113499023705D4B636040F22913A3605B4BE360BB
S11349A0FEE73A685A4B9A4209D00C232370564BBF
S11349B0636040F22D13A360544BE360FEE7BAF149
S11349C0000F0CDBFDF7DCFA48B11F2323704E4BBC
S11349D063604FF49873A3604C4BE360FEE74D4B68
S11349E01B78012B17D1FDF7B8FA3E6A804606B34F
S11349F0013E3E620DB17B6A2B6040463E6AFDF784
S1134A00B2FA00232370404B636040F24313A36067
S1134A103E4BE36009E0022323703B4B636040F2AA
S1134A203513A360394BE3600026304602B0BDE87D
S1134A30F087BAF1000F0CDA05B12E6040463E6AE9
S1134A40FDF791FA1D2323702F4B636040F251133D
S1134A50DDE7314B1B785BB105B12E604046FDF7B5
S1134A6082FA2D232370284B636040F25D13CEE756
S1134A704A4606213846FEF7D5FF4046FDF773FA4D
S1134A80FEF7F0FDFDF769FA244B1B6893F831201B
S1134A90032A31D8DFE802F00212261C0DB15B6C48
S1134AA02B6000232370184B63604FF4BA73A36028
S1134AB0164BE3603E6AFDF756FAB6E70DB15B6C40
S1134AC02B6021232370104B63604FF4BF73EEE718
S1134AD00DB100232B60222323700B4B63604FF432
S1134AE0C473E4E70DB15B6C2B6031232370064B78
S1134AF063604FF4C973DAE70190FDF734FAFEF707
S1134B008BF90198D6E700BF27940000A394000016
S1134B1053454D415C5500205D55002074560020DE
S1134B202DE9F3470646884614460AB9FEF774F998
S1134B304EB90A2323703E4B636040F22623A360E0
S1134B403C4BE360FEE747F6FF5518EA050509D03C
S1134B5008232370364B636040F22923A360354B4E
S1134B60E360FEE73268344B9A4209D00C23237089
S1134B702F4B636040F22F23A3602E4BE360FEE7CC
S1134B802E4B1B78012B09D002232370284B636022
S1134B9040F23323A360274BE36038E001F02CF9A3
S1134BA08146FDF7DAF9B7680546F7B108F4007AEB
S1134BB0002339461A467F6ACDF800903046FEF746
S1134BC073FCBAF1000F01D0002FF1D12846FDF794
S1134BD0CAF918F4004F01D1FEF744FD144B636089
S1134BE00025257040F26523D4E7356ADFF840A03C
S1134BF0DFF840806B1C0ED1FDF7B5F91E2323703E
S1134C004FF41173C4E90238C4F804A03D462846A1
S1134C1002B0BDE8F0870135C6E90859FDF7A3F9EC
S1134C2040F24F23C4E902382770C4F804A0EEE729
S1134C30279400009994000053454D415C55002091
S1134C40054B064AC36100234361136883610BB9B2
S1134C50106070475861FBE7F3910000685500202D
S1134C602DE9F84F05460F4693461C460BB9FEF74F
S1134C70D3F8FDF77BF9DFF88490DFF884800646EB
S1134C8038B1202323705823C4E90238C4F80490AF
S1134C90FEE73DB90A2323705B23C4E90238C4F854
S1134CA00490FEE7FDF759F92C2231468246284646
S1134CB003F0B4FE0F4B2B6005F10800C5F820B0DB
S1134CC06F60FEF78FF92846FFF7BAFF0A4A138888
S1134CD00133138029463A462F20FCF7ABF850469F
S1134CE0FDF741F973232670C4E90238C4F804902F
S1134CF0BDE8F88F53454D416C55002027940000C2
S1134D00AD940000F8B5064608B9FEF785F8FDF73E
S1134D1024F91F4B00251D801E4B1D601E4B1D607A
S1134D201E4B1D81FDF71FF9FDF717F91C4B1C687D
S1134D30FDF719F974B9FDF710F91A4B1D68FDF761
S1134D4012F905BB184B7360A423B3603570174B7D
S1134D50F360F8BDFDF701F9C4E93455C4F898507F
S1134D60C4F8DC50C4F8C450A4F8BE50A4F8C05031
S1134D70074601F041F8A4F89050C4F8CC00D4F8E8
S1134D80EC403846D4E7FDF7E8F8AC85AD69D6E7E2
S1134D907255002070560020C45700204052002055
S1134DA08056002054520020B99400003F95000022
S1134DB000B5104A104900231370104A8BB01370C9
S1134DC00322CDE90632CDE904330D4A0890126876
S1134DD003920C4A0C48126802920C4A126801921F
S1134DE00B4A127800920B4A00F04EFA0BB05DF8B1
S1134DF004FB00BF745500202C9500006E55002064
S1134E00D8500020D450002078550020D0500020E5
S1134E10C4500020294E000008B500F0EDFF014BFE
S1134E20186008BD345200202DE9F04F85B0684663
S1134E30FFF768FF684600F0B3FC9DF800300546B4
S1134E400BB1FDF7E9FF5C4B18684FF00008A8426E
S1134E50C24642F2107728BF0A20B5FBF0F500F0F5
S1134E60CBFF564E814600F0C7FF3368984267D3A4
S1134E7000F0C2FF3468041BFDF76FF8504BD3F801
S1134E8000B0C3F800A0FDF76EF84E4B9C425DD90C
S1134E904D4B9C425ED94D4B9C425FD34C4B9C4244
S1134EA095BF4FF47A7038460A2601260BFB06F3A9
S1134EB0B4FBF0F4B3FBF4F39BB2BB42454A28BF06
S1134EC03B461380444AFB1A9BB21380434A118821
S1134ED0994203D2B8F1000F00D01380DFF808B173
S1134EE0FDF73BF8DBF80080FDF73DF8B8F1000F63
S1134EF037D1FDF732F8DBF80080FDF734F8B8F16C
S1134F00000F3BD1364B1A78012A04D1684683F846
S1134F100080FFF7F7FE01F073F8FFF77DFF00F064
S1134F206BFF304B1A68A0EB0900824238BF18604F
S1134F306A460021284600F045FC4FF001088EE740
S1134F4000F05AFF3368DB431C1895E7012042F256
S1134F501076ABE70A204FF47A76A7E7642006467A
S1134F60A4E7FCF7FAFFD8F8D030C8E934A3FCF77B
S1134F70FAFFFCF7F2FFD8F8EC80B5E7D8F8D430A4
S1134F80B8F8C0207343B3FBF4F39BB2BB4228BF11
S1134F903B469A4238BFA8F8C030A8F8BE3008F1A2
S1134FA0E00208F1E40140466B4600F041F8FCF7EA
S1134FB0D4FFD8F8EC80A0E7C85000203452002079
S1134FC0305200207F1A0600FF083D00005A62029A
S1134FD0FF83D717285200207055002072550020F7
S1134FE06E550020705600208056002008B500F051
S1134FF003FF014B186008BD2C52002010B50A4C69
S113500000F0FAFE2368984208D300F0F5FE236806
S1135010C01A064A13681844106010BD00F0ECFE74
S11350202368DB431844F4E72C520020305200205C
S11350302DE9F04105460F4616461C460BB9FDF70F
S1135040EBFEFCF793FF48B1202323702F4B6360E2
S113505040F2BA63A3602E4BE360FEE74FB90A2324
S113506023702A4B636040F2BD63A360284BE36066
S1135070FEE74EB90A232370244B636040F2BF63FA
S1135080A360234BE360FEE7FCF767FF0DB9214BF8
S11350901D68D5F80080B8F1000F10D1FCF763FF4C
S11350A00823C7F80080C6F800802370174B63609C
S11350B040F2CA63A360164BE360BDE8F081B5F823
S11350C0408018F001080CD1FCF74DFF0723C7F806
S11350D00080C6F8008023700C4B636040F2D263FA
S11350E0E8E7FCF740FFAA6900231C3252F8041FCA
S11350F051B13B60EA6BD31A336000232370034B36
S1135100636040F2ED63D5E70133EFE74B950000B0
S1135110E795000074560020064A0023C0F8E830E2
S11351201368C0F8EC300BB910607047C3F8E8009E
S1135130FAE700BF80560020D0E93A2342B90A4971
S11351400B600BB1C3F8E8200023C0F8EC307047C3
S1135150C2F8EC3013B9C0F8E8307047C3F8E8205F
S11351600023C0F8EC30F6E780560020074A0023FD
S11351701360074A1380074A13600370064B4360A9
S113518040F61F038360054BC360704780560020C0
S1135190845600207C5600204B950000C4950000E6
S11351A038B5F8220446002103F038FC1D4BE360B7
S11351B00025002104F18400FFF7CAF8C4E925554D
S11351C0C4E92D55C4E92755C4E93655C4E9385511
S11351D0C4E91D55C4E93155C4F8A850A4F8B05029
S11351E0C4F8AC50C4F8A450E564E56384F8BC503A
S11351F0A4F84050656584F85050A4F8BE50A4F853
S1135200C05000F0F9FD4FF080432363402384F83D
S11352103430054BA563C4E93305C4E93A55C4F8F1
S1135220F03038BDBE950000F3910000064A031F1C
S11352301C3053F8041F914203D18342F9D1012059
S113524070470020704700BF4523CDAB08B9084B19
S11352501868026883699A4207D3C16B03EB810023
S1135260824202D21846FFF7E1BF0020704700BF18
S113527074560020034A031F1C3043F8042F834252
S1135280FBD170474523CDAB2DE9F04F89B0DDE963
S1135290136A05939DF848300493BDF8583006937B
S11352A0DDE917931A9C0793BDF86430159F0392A8
S11352B00546884602930CB9FDF7AEFDFCF756FE91
S11352C0834A844B834630B16260F022C4E90223EE
S11352D020212170FEE735B96260F322C4E902237C
S11352E00A212170FEE7039931B96260F622C4E90C
S11352F002230A212170FEE736B96260F922C4E96B
S113530002230A212170FEE773490968B94206D9CC
S11353106260FC22C4E9022308212170FEE757459C
S113532006D86260FF22C4E9022308212170FEE747
S113533004993F2907D962604FF48172C4E90223BA
S113534008212170FEE7654906980988814207D241
S113535062604FF48372C4E9022308212170FEE7DE
S11353602846FFF71DFF5B4B594AE360029B6260CE
S113537040F20B12A2609A0784F800B040F08A80D1
S1135380029B059903982AF0070A06EB8A0ACDE9DD
S113539000733246534600F037FE864283460AD9EC
S11353A0322323704A4B63604FF49473A360494BD8
S11353B0E360FDF731FD39463046FFF75BFF039BA1
S11353C0EB61059B2B62049B454CC5F80C8085F86A
S11353D0333085F83430C5F800B0C5F808A0C5F8F6
S11353E07490B9F1000F62D13E4BD3F800A001F0E4
S11353F08FFB2268511E0C4649464B46EAFB00418E
S1135400204603F033F9079B6B60029BA5F84030FC
S113541005F184040023C5E927330699C5F8A430AF
S1135420A867AE612046EF63FEF792FF284600F0BE
S1135430E8FD2846FBF72AFBEB6B95F83320E96877
S113544000932846AB69FBF7A9FC4246294626206F
S1135450FBF7F0FC424621462320FBF7EBFCFCF76C
S11354607CFD044695F83300FFF738FA2846FDF72B
S1135470E5FF2846FFF750FE1B4A138801331380CB
S11354801A4B1B78012B20461BD009B0BDE8F04F06
S1135490FCF769BD029B9B077FF572AF00231A4698
S11354A002E046F823200133BB42FAD168E701F059
S11354B02FFB22680023511E0C461946E9FB0041CC
S11354C09EE7FCF750FD09B0BDE8F04FFEF7CAB8FF
S11354D04B950000DA9500006C910000BC50002050
S11354E0E050002060550020845600205C550020C8
S11354F070B504460D4694F83230072B08D8013BAA
S1135500062B0BD8DFE803F01F22221F1F222200E4
S1135510FF2B1AD0BDE87040FDF77EBC2046FEF795
S11355202BF8284684F83350FFF7D8F92D4B1B6825
S1135530A342204603D1BDE87040FDF763BFBDE838
S11355407040FDF77BBF84F8335070BD94F8303061
S113555094F8336084F83350013B072BDAD801A266
S113556052F823F0855500004B55000015550000F6
S11355708F55000085550000855500004B550000EF
S1135580855500002046BDE87040FDF773BD2046F8
S1135590FDF770FDE36A5C6AB54294F833300AD2D1
S11355A0AB42D2D92046FAF78BFF2A4601462D207A
S11355B0FBF734F99FE7B3429DD12046FFF766F825
S11355C094F8342094F83330904228BF1046C5B282
S11355D0AB42BAD02046FAF773FF2A4601462E2082
S11355E0E6E700BF745600202DE9F04104460D465D
S11355F009B9FDF711FCFCF7B9FC48B120232B7065
S11356005B4B6B604FF4DA73AB605A4BEB60FEE7B5
S1135610594B1B78012B0AD002232B70544B6B601F
S11356204FF4DC73AB60534BEB60BDE8F0812CB9F5
S1135630FCF793FC514B1C68FCF795FCFCF78DFCC4
S113564094F83230072B804608D8013B062B0DD83E
S1135650DFE803F04935350F49353500FF2B7DD0A0
S1135660FCF781FCBDE8F041FDF7D6BB2046FDF711
S113567083FFA36B13B12046FFF7F0F804F1840015
S1135680FEF74EFE204600F0BDFC2046FFF754FD19
S11356903B4A1388013B1380FF2384F83230404691
S11356A0FCF761FC00232B70314B6B6040F231231B
S11356B0AB60304BEB60BDE8F041FDF7D3BF94F82D
S11356C03030082B47D8DFE803F0080508461705F3
S11356D0050805002046FDF7B2FC94F8323003F0CB
S11356E0FB03032BC5D104F1580001F04BF900284A
S11356F0BFD0FDF791FBBCE7E36A5E6A204696F8EB
S11357003370FDF79CFC96F8333096F834209A42B7
S11357100CD094F833209A4208D13046FEF7B6FFF5
S113572096F83410814228BF0146CFB2002384F892
S1135730303096F83330BB42CFD039463046FFF78D
S1135740D7FE3046FAF7BCFE96F8332001462E20E9
S1135750FBF764F8C1E7FDF75FFBBEE7FCF703FC6A
S11357601F232B70024B6B6040F207235AE700BFE4
S11357704B950000D09500005C5500207456002025
S1135780845600201FB5054B186800F03CFC6946A0
S11357900020FFF729FF05B05DF804FB74560020D4
S11357A000230370044B436041238360034BC360B5
S11357B0034B1868704700BFF49500007196000011
S11357C0E05000202DE9FF470546884614460AB9F3
S11357D0FDF722FBFCF7CAFB6C4F6D4E30B1202362
S11357E023707123C4E902366760FEE7FCF7C8FB47
S11357F030B11F2323707423C4E902366760FEE7C7
S1135800644B1B78012B08D0022323706760782334
S1135810C4E9023604B0BDE8F0875F4B93F800A0FA
S1135820BAF1000F04D02D23237067607D23EFE7C6
S1135830DFF88091D9F8003023B91323237067600F
S11358408223E5E7B8F1000F2BD0B8F1020F28D07E
S1135850B8F1080F00F08F80082323708723C4E970
S113586002366760FEE701F047F94C4BD9F8002097
S113587019685346A0FB010102F0F8FE484B1B686F
S113588093F85020CAB15A6D15445D652D1A25EA66
S1135890E575444A116821B15A6D91429CBF521A70
S11358A05A65002D47D03F4B1B6863B1AB420AD801
S11358B01E2323706760AF23AAE72844012258659A
S11358C083F85020E5E7354BD9F800C01A68DFF8B3
S11358D0D0904FF00008501E41464346E5FB0C01B2
S11358E002F0C4FE0390FCF738FBCDE90088D9F838
S11358F000302D4A0399054603F1580001F0A0F841
S11359004FF0010838B12846FCF72DFB84F80080DD
S11359106760BF237CE7D9F8000080F83280FDF788
S11359202BFE2846FCF71FFBFDF79CFE002323708B
S11359306760D8236CE7FCF710FB1C4B1C491A78F2
S11359404FF00C0C02EB42030CFB02F201EB020CD5
S113595001EB83038958DCF804209142054606D103
S1135960FCF701FB002323706760CE2350E7184641
S1135970FDF7EBFDD5E7002D7FF475AF8C23C4E96B
S1135980023684F800806760FEE700BFF4950000EB
S1135990679600005C5500205D550020E050002013
S11359A07456002004510020F138000052520020A7
S11359B05C5200202851002000B589B004AB0022BD
S11359C00093044803AB1146FEF7CCFC09B05DF824
S11359D004FB00BF945600201FB504486A4600210A
S11359E0FEF762FE05B05DF804FB00BF945600208C
S11359F070B505460C4609B9FDF70EFAFCF7B6FA80
S1135A0048B1202323703C4B636040F2C913A36068
S1135A103A4BE360FEE74DB90A232370364B6360CB
S1135A204FF4E673A360354BE360FEE72A68344B1A
S1135A309A4209D00C2323702F4B636040F2CF139A
S1135A40A3602E4BE360FEE72E4B1E78012E0BD095
S1135A5002232370284B636040F2D313A360274BC7
S1135A60E3600646304670BDFFF7A6FF95F8263082
S1135A70032B3CD8DFE803F030120212EB6903B9C0
S1135A802B6AAB61002323701B4B636040F2E1136C
S1135A90A3601A4BE360FFF79FFFE3E7022385F857
S1135AA02630EB6903B92B6A1749AB610B68174AB7
S1135AB02B6153B96B610D600123138000232370A4
S1135AC00D4B636040F2FD13E2E7002068615D6105
S1135AD013880D600133F0E713222270064A6260D6
S1135AE040F20222A260054AE2601E46D3E7FDF7B7
S1135AF093F90026CFE700BF8596000018970000B1
S1135B00544D52205C550020905600208C560020A5
S1135B10044A002383621368C3620BB910607047A0
S1135B209862FBE7885600202DE9F74F0F9CBDF8DB
S1135B3030900191054690469A460CB9FDF76CF9F0
S1135B40FCF714FA364F374E30B17723C4E90236E6
S1135B50202222706760FEE735B97A23C4E9023651
S1135B600A2222706760FEE7B9F1010F15D0B9F17E
S1135B70020F1CD1BAF1000F06D17F23C4E902360B
S1135B80082222706760FEE70D9BBBB98223C4E93B
S1135B9002360A2222706760FEE7B8F1000F0DD1C9
S1135BA08623C4E90236082222706760FEE78A234E
S1135BB0C4E90236082222706760FEE7DFF870B09D
S1135BC09BF80020012A01D1FFF7F6FE30220021C4
S1135BD0284602F023FF0122019B85F82620124A61
S1135BE012492A606B600E9A0D9BEA60C5E9078A28
S1135BF0A5F82490AB602846FFF78AFF0A88013293
S1135C000A809BF80020012A01D1FFF7E5FE00225B
S1135C10AD23C4E902362270676003B0BDE8F08F9B
S1135C208596000023970000544D5220C85600204A
S1135C305C55002010B51F4A002313601E4A044619
S1135C4013601E4A8AB01380FFF7AAFD2378002B45
S1135C502CD11B4B1B68002B2AD0B0FBF3F3194A41
S1135C6019491360194A1A4813601A4A0023136029
S1135C70194A13602246FEF7ADFC2378B3B90B2210
S1135C80CDE90632CDE90433144A0894126803922C
S1135C90134A144912680292134A14481268019272
S1135CA0134A12780092134AFFF7EEFA0AB010BDB5
S1135CB00A23D2E788560020905600208C560020F4
S1135CC0E8500020CC570020F7960000D057002061
S1135CD094560020C8570020C4570020F8500020D4
S1135CE0F450002004970000F0500020CC5600200F
